:060000000A128A110C280F
:10000800FE00030EF2000A08F3000A128A1187287C
:100018000A128A110F280A128A111C210A128A113F
:10002800FB00A001A101A201A301A401A501F60101
:10003800F701F801F901FA0183010A128A11DB2894
:1000480007308316031788008901073083160313C6
:1000580085008701880189018312031385018801BE
:10006800870189017030831603138F040F148112DE
:1000780001128111011581140114ED30831203134B
:100088008100831603139F131F129F1283120313F9
:100098001F083F3980389F00C3309F051F14213047
:1000A800F400F40B55280B118B168B1783120313CE
:1000B8000C13831603130C170B1707158714FF303F
:1000C80092003F308312031397051708F0390C3854
:1000D80097001D08F0390C389D000F3095000F303F
:1000E8009B001D129D12CF3097058C10033092048F
:1000F80012158C1C802881287D288C1083160313E8
:10010800071187100800831203130C1F8C288D28F1
:10011800CB281F0CF000700C0F39013A031D9528ED
:1001280096289D281E08F0000310700C803E9B0046
:10013800CA281F0CF000700C0F39003A031DA528BF
:10014800A628CA281E08F0000310700C7C3E9500F3
:100158001E080139F000F00EF00D17087006DF399F
:1001680070069700831603131E08F000073003106B
:10017800F00CFF3E031DBB287008F100F10E83123E
:10018800031317087106EF39710697000C130B1D3E
:10019800CE28CF28D4280A128A1116210A128A11C9
:1001A80073088A00720E8300FE0E7E0E09000A1282
:1001B8008A1124200A128A11831203139F149F188C
:1001C800E628E728E3281F0CF500750C0F39023ADA
:1001D800031DEF28F028FA281F08C33904389F00A8
:1001E8006330F500F50BF628F9280B291F0CF500EC
:1001F800750C0F39013A031D022903290629C3305A
:100208009F05F4281F08C33908389F00F428853053
:10021800F500F50B0D29831203139F14E3280A1226
:100228008A110C280B11ED3083120313810008008A
:0202380001348F
:04400E00D420FF3F7C
:00000001FF
