:060000000A128A110C280F
:10000800FE00030EF2000A08F3000A128A111728EC
:100018000A128A110F28F601F701F801F901830184
:100028000A128A111229831203130C1F1C281D2877
:100038008A281F0CF000700C0F39013A031D25287F
:1000480026284B281E08F0000310700C7C3E9B00ED
:100058001E080139F000F00EF00D1D087006DF399A
:1000680070069D00831603131E08F0000730031066
:10007800F00CFF3E031D3B287008F100F10E8312BF
:1000880003131D087106EF3971069D0089281F0C9E
:10009800F000700C0F39003A031D532854287928B2
:1000A8001E08F0000310700C7C3E95001E080139F4
:1000B800F000F00EF00D17087006DF397006970093
:1000C800831603131E08F00007300310F00CFF3EE0
:1000D800031D69287008F100F10E83120313170835
:1000E8007106EF397106970089281F0CF000700C13
:1000F8000F39023A031D8128822889281E08F0003A
:10010800F1017008F6007108F7000C130B1D8D281B
:100118008E28A9280A128A114E210A128A118312DE
:10012800031387150130F8070318F90A0030F90797
:100138007708F9007608F800780879040319A528E3
:10014800A628A9288711F801F90173088A00720EF8
:100158008300FE0E7E0E0900073083160317880001
:1001680089010730831603138500870188018901F7
:1001780083120313880187018901703083160313E2
:100188008F040F14811201128111011581140114B9
:10019800E130831203138100831603139F131F1288
:1001A8009F12831203131F083F3980389F00C33002
:1001B8009F051F142130F400F40BE0280B118B1657
:1001C8008B17831203130C13831603130C170B17C7
:1001D80007158714FF3092003F30831203139705E9
:1001E8001708F0390C3897001D08F0390C389D00B5
:1001F8000F3095000F309B001D129D12CF309705D0
:100208008C100330920412158C1C0B290C29082918
:100218008C10831603130711871008000A128A111D
:10022800B0200A128A11831203139F149F181D29E4
:100238001E291A291F0CF500750C0F39023A031DE7
:100248002629272931291F08C33904389F00063079
:10025800F500F50B2D29000042291F0CF500750C3F
:100268000F39013A031D39293A293D29C3309F0521
:100278002B291F08C33908389F002B290630F500A1
:10028800F50B44290000831203139F141A290A123C
:100298008A110C280B11E130831203138100080026
:04400E00D420FF3F7C
:00000001FF
