:060000000A128A110E280D
:10000800FE00030EF4000408F5000A08F6000A12C0
:100018008A1187290A128A1111280A128A11F221D3
:100028000A128A11FC00A001A101A201A301A401E6
:10003800A501F701F801F901FA01FB0183010A1290
:100048008A11BB29073083160317880089010730F6
:10005800831603138500870188018901831203131E
:1000680085018801870189017030831603138F0485
:100078000F14811201128111011581140114ED3040
:10008800831203138100831603139F131F129F12F9
:10009800831203131F083F3980389F00C3309F0520
:1000A8001F14203083120313A600A60B5928000042
:1000B8000B118B168B17831203130C138316031360
:1000C8000C170B1707158714FF3092003F30831267
:1000D800031397051708F0390C3897001D08F039F5
:1000E8000C389D000F3095000F309B001D129D129B
:1000F800CF3097058C100330920412158C1C85287C
:10010800862882288C10831603130711871008008D
:10011800BF28BF30F0000030F100E4288630F0003E
:100128000030F100E428DB30F0000030F100E42872
:10013800CF30F0000030F100E428E630F000003065
:10014800F100E428ED30F0000030F100E428FD3043
:10015800F0000030F100E4288730F0000030F100B2
:10016800E428FF30F0000030F100E428EF30F00020
:100178000030F100E4287108003A0319C428E42883
:100188007008003A03198D28013A03199228033A96
:1001980003199728013A03199C28073A0319A1283B
:1001A800013A0319A628033A0319AB28013A03199F
:1001B800B0280F3A0319B528013A0319BA28E428D8
:1001C800080018293F30F0000030F1003D290630C2
:1001D800F0000030F1003D295B30F0000030F10004
:1001E8003D294F30F0000030F1003D296630F00025
:1001F8000030F1003D296D30F0000030F1003D295C
:100208007D30F0000030F1003D290730F00000306B
:10021800F1003D297F30F0000030F1003D296F30BA
:10022800F0000030F1003D297108003A03191D293A
:100238003D297008003A0319E628013A0319EB280A
:10024800033A0319F028013A0319F528073A031964
:10025800FA28013A0319FF28033A03190429013A35
:10026800031909290F3A03190E29013A0319132909
:100278003D2908007C088312031389007C03031DB1
:100288004629472959292108F1002008F0000A12B7
:100298008A11E5200A128A11700883120313880054
:1002A8000230F2007208FC00862902307C06031D29
:1002B8005E295F2971292308F1002208F0000A123B
:1002C8008A11E5200A128A11700883120313880024
:1002D8000430F2007208FC00862904307C06031DF5
:1002E8007629772986292508F1002408F0000A12C2
:1002F8008A118C200A128A1170088312031388004D
:10030800FC01FC0A0800831203130C1F8C298D2999
:10031800A4291F0CF300730C0F39013A031D95290A
:1003280096299D291E08F3000310730C763E9B0046
:10033800A3291E08F3000310730C763E95000C13D6
:100348000B1DA729A829B2290A128A11EC210A1221
:100358008A110A128A113E210A128A1176088A0025
:1003680075088400740E8300FE0E7E0E09000A12C2
:100378008A1126200A128A11831203139F149F18C8
:10038800C629C729C3291F0CA700270C0F39013A12
:10039800031DCF29D029D929C3309F056330831283
:1003A8000313A700A70BD629DE291F08C339043871
:1003B8009F00D229843083120313A700A70BE229D8
:1003C8000000831203139F14C3290A128A110E28EE
:0E03D8000B11ED308312031381000800013475
:04400E00D420FF3F7C
:00000001FF
