:060000000A128A11122809
:10000800FE00030E83120313AD000408AE000A08B5
:10001800AF007F08B0000A128A117B2A0A128A11DF
:1000280015280A128A11F0220A128A11B300A001B7
:10003800A101A201A301A401A501A601A701A8018C
:10004800A901AA0183010A128A11B82AF601F11F2F
:100058002E282F283628F009F109F00A0319F10A89
:10006800F601F60AF31F39283A284328F209F3095A
:10007800F20A0319F30A0130F4007408F606F701CE
:10008800F8017008710403194A284B288228F501E1
:10009800F50A592801300310F00DF10DFF3E031D3C
:1000A8004F280130F4007408F507F11F5C285D281B
:1000B8004E2801300310F70DF80DFF3E031D5E2892
:1000C80071087302031D6A2870087202031C6D28E8
:1000D8006E2875287008F2027108031CF303F302F6
:1000E800771401300310F10CF00CFF3E031D762845
:1000F8000130F502031D812882285D28760803193E
:10010800862887288C28F709F809F70A0319F80AB6
:100118007808F1007708F0000800F601F31F952829
:1001280096289D28F209F309F20A0319F30AF60141
:10013800F60AF11FA028A128A628F009F109F00A5B
:100148000319F10A700871040319AB28AC28DB28DD
:10015800F501F50ABA2801300310F00DF10DFF3E44
:10016800031DB0280130F4007408F507F11FBD28FD
:10017800BE28AF2871087302031DC42870087202D4
:10018800031CC728C828CE287008F2027108031C6F
:10019800F303F30201300310F10CF00CFF3E031DD2
:1001A800CF280130F502031DDA28DB28BE2876089F
:1001B8000319DF28E028E528F209F309F20A0319F0
:1001C800F30A7308F1007208F00008001D29BF3017
:1001D800F0000030F10042298630F0000030F100D4
:1001E8004229DB30F0000030F1004229CF30F00026
:1001F8000030F1004229E630F0000030F1004229D9
:10020800ED30F0000030F1004229FD30F000003000
:10021800F10042298730F0000030F1004229FF3018
:10022800F0000030F1004229EF30F0000030F1001A
:1002380042297108003A0319222942297008003A14
:100248000319EB28013A0319F028033A0319F52892
:10025800013A0319FA28073A0319FF28013A031942
:100268000429033A03190929013A03190E290F3AF7
:1002780003191329013A0319182942290800762974
:100288003F30F0000030F1009B290630F0000030CC
:10029800F1009B295B30F0000030F1009B294F30C2
:1002A800F0000030F1009B296630F0000030F100CA
:1002B8009B296D30F0000030F1009B297D30F00063
:1002C8000030F1009B290730F0000030F1009B2935
:1002D8007F30F0000030F1009B296F30F0000030D3
:1002E800F1009B297108003A03197B299B297008A2
:1002F800003A03194429013A03194929033A031911
:100308004E29013A03195329073A03195829013A82
:1003180003195D29033A03196229013A0319672968
:100328000F3A03196C29013A031971299B2908000E
:10033800FC01FD010A30F0000030F10083120313C4
:100348002708F3002608F2000A128A1191200A12DF
:100358008A117C08F9007907203E8400700883130D
:100368008000840A710880000A30F0000030F10033
:100378007C08F9007907203E84000008FA00840A06
:100388000008FB007A08831203132602F2007B0898
:10039800031C7B0A2702F3000A128A112A200A1278
:1003A8008A11710883120313A7007008A600013090
:1003B800FC070318FD0A0030FD077D08803AFF009E
:1003C80080307F02031DEA2903307C02031CED29DB
:1003D800EE299E290800831203133308890033038A
:1003E800031DF729F8290A2A2108F1002008F0003E
:1003F8000A128A1143210A128A1170088312031300
:1004080088000230F2007208B300372A023033063F
:10041800031D0F2A102A222A2308F1002208F000BF
:100428000A128A1143210A128A11700883120313CF
:1004380088000430F2007208B300372A043033060B
:10044800031D272A282A372A2508F1002408F00046
:100458000A128A11EA200A128A11700883120313F9
:100468008800B301B30A0800033083160317880015
:1004780089010330831603138500870188018901E8
:1004880083120313850188018701890183160313E9
:100498000F088F3960388F000F14811201128111F3
:1004A800011581140114ED308312031381008316A2
:1004B80003139F131F129F12831203131F083F3940
:1004C80040389F00C3309F051F140F308312031359
:1004D800B100B10B6D2A702A0B118B168B17831282
:1004E80003130C13831603130C170B1708000C1FA8
:1004F8007E2A7F2A9D2A1F0CAB002B0C0F39013A4C
:10050800031D872A882A982A1E08AB00AC0103100D
:10051800AB0DAC0D2B08A6002C08A7000A128A11F7
:100528009C210A128A119A2A1E0887008312031333
:100538000C130B1DA02AA12AAB2A0A128A11EA223F
:100548000A128A110A128A11EF210A128A118312D9
:1005580003133008FF002F088A002E0884002D0E90
:100568008300FE0E7E0E09000A128A1138220A1232
:100578008A11831203139F149F18C32AC42AC02AFE
:100588001F0CB200320C0F39013A031DCC2ACD2AB8
:10059800D72AC3309F050F3083120313B200B20B62
:1005A800D32AD62ADC2A1F08C33904389F00CF2A49
:1005B8000F3083120313B200B20BE02AE32A83122E
:1005C80003139F14C02A0A128A1112280B11ED3046
:0A05D80083120313810008000134B0
:04400E00D420FF3F7C
:00000001FF
